:10000000020BFA43BA8053C9CF43CA30D2CCD2CD07
:10001000120B74120B3CE4FFFE1209AC90FE80E060
:100020004480F07BFF7A0C7919120ACE7F147E008F
:10003000120B1D120C167F327E00120B1D7BFF7AF5
:100040000C792A120ACE7BFF7A0C792F120ACE7B0A
:10005000017A0079007D177C007F007E801208669F
:10006000E49006B2F0A3F07BFF7A0C794F9006BBC8
:100070001207EE9006B2E0FCA3E0FD2400FEEC3493
:10008000809006BEF0A3CEF0ED25E0FFEC33FE74C9
:10009000002FF58274003EF583E0FFA3E09006C0D8
:1000A000CFF0A3EFF07B017A0679801203D3120A16
:1000B000C89006B2E475F001120741C39006B3E0A0
:1000C00094179006B2E09400409D7BFF7A0C796112
:1000D000120ACE7F02120A61E4FF1209F07F0112B8
:1000E0000A2B7BFF7A0C792F120ACE7B017A0079DA
:1000F000007D177C007F007E80120866E49006B2C7
:10010000F0A3F07BFF7A0C794F9006BB1207EE90BC
:1001100006B2E0FCA3E0FD2400FEEC34809006BEB5
:10012000F0A3CEF0ED25E0FFEC33FE74002FF58256
:1001300074003EF583E0FFA3E09006C0CFF0A3EF8C
:10014000F07B017A0679801203D3120AC89006B2B6
:10015000E475F001120741C39006B3E094179006CE
:10016000B2E09400409D7BFF7A0C7961120ACE7F49
:10017000C87E00120B1D7BFF7A0C7964120ACE7BBD
:10018000017A0079007D407C037F007E241208669E
:10019000E49006B2F0A3F09006B2E0FEA3E0FFC345
:1001A0009440EE94035079EF541F702C7BFF7A0C2F
:1001B00079819006BB1207EE9006B3E02400FE9012
:1001C00006B2E034249006BEF0A3CEF07B017A069E
:1001D00079801203D3120AC87BFF7A0C79909006BB
:1001E000BB1207EE9006B3E025E0FF9006B2E033C5
:1001F000FE74002FF58274003EF583E0FFA3E090CB
:1002000006BECFF0A3EFF07B017A0679801203D30C
:10021000120AC89006B2E475F00112074102019774
:100220007BFF7A0C7961120ACE7F327E00120B1DA1
:100230007F147E00120B1D7B017A0679B67D017C4E
:10024000007F0D7E801208667B017A0679B47D01FD
:100250007C007F007E801208669006B4E0FEA3E07A
:1002600030E3CDD2CDAC0654E7FD7F007E8012098D
:100270005F7B017A0079007D407C037F007E041261
:100280000866E49006B2F0A3F09006B2E0FEA3E0A8
:10029000FFC39440EE94035079EF541F702C7BFF02
:1002A0007A0C79969006BB1207EE9006B3E0240014
:1002B000FE9006B2E034049006BEF0A3CEF07B01BF
:1002C0007A0679801203D3120AC87BFF7A0C7990E0
:1002D0009006BB1207EE9006B3E025E0FF9006B251
:1002E000E033FE74002FF58274003EF583E0FFA337
:1002F000E09006BECFF0A3EFF07B017A0679801282
:1003000003D3120AC89006B2E475F0011207410245
:1003100002897BFF7A0C7961120ACE7BFF7A0C7915
:10032000A59006BB1207EE9006B6E0FFA3E090068C
:10033000BECFF0A3EFF07B017A0679801203D312CF
:100340000AC87BFF7A0C79B59006BB1207EE9006BF
:10035000B5E05401FF9006BEE4F0A3EFF07B017A14
:100360000679801203D3120AC8C2CD020230E50812
:1003700024BBF582E43406F583E00508229006B834
:100380003007039006BBE475F0011207D70206D3CD
:100390002000E97F2ED2008018EF540F2490D4342F
:1003A00040D4FF30040BEF24BFB41A005003246183
:1003B000FFE50960021509050CE50C7002050B301C
:1003C000070E9006B8E475F0011207D7EF02082473
:1003D000020AF67403D2078003E4C207F508900608
:1003E000B81207EEE4F509F50BF50CE50960077F97
:1003F000201203B180F5750AFFC201C200C202C219
:1004000003C205C206C20812037DFF700D30070546
:100410007F001203C2AF0CAE0B22B4255FC2D5C25F
:100420000412037DFF24D0B40A00501A75F00A7834
:100430000930D50508B6FF0106C6A426F620D50466
:100440007002D20380D924CFB41A00EF5004C2E561
:10045000D2040205C3D20180C6D20080C0D202807D
:10046000BCD2D580BAD20580B47F201203B120025D
:10047000077401B5090040F112036EFF1203B102C7
:1004800003EBD208D206809512036EFB12036EFABC
:1004900012036EF94A4B700679947A067BFF2002AC
:1004A0002EE509602A7E008E827583001207F760B0
:1004B000060EEE650A70F0C2D5EBC0E0EAC0E0E9D6
:1004C000C0E0EE12060AD0E0F9D0E0FAD0E0FB126C
:1004D00006D3FF60AAEBC0E0EAC0E0E9C0E0120387
:1004E000B1D0E02401F9D0E03400FAD0E0FBE50A15
:1004F0000460DCD50AD980877BFF7A067906D202B0
:10050000809C791080027908C206C2088008D2D582
:10051000790A8004790AC2D5E50A047002F50AE472
:10052000FAFDFEFF12036EFC7B0820011312036E1E
:10053000FD7B1030000A12036EFE12036EFF7B205B
:10054000EC3382D592D55013C3E43000069FFFE40C
:100550009EFEE42001039DFDE49CFCE4CBF8C20177
:10056000EC700CCFCECDCCE824F8F870F38017C334
:10057000EF33FFEE33FEED33FDEC33FCEB33FB9951
:100580004002FB0FD8E9EB300105F8D0E0C448B2D7
:1005900001C0E00AEC4D4E4F78207B0070C2EAB5F6
:1005A0000A0040BCC0E012060CD0F0D0E0200104EC
:1005B000C4C0E0C4B201C0F012039AD0F0D5F0EB91
:1005C0000203EB12083604885305025804594C0400
:1005D000554205064F050E44050E49046E430514A9
:1005E0005504F84604F84504F84706B450045D2D58
:1005F00004612E04842B046523048220069D2A04B2
:100600001D480000047C3F3F3F00790AA2D520032B
:1006100014300509B910020404B9080104A2D52058
:1006200006025001042002689202B509005034C04D
:10063000E07F203003197F30A20272067205500F4E
:10064000120663C202C206C205C2087F30800F30A4
:100650000503E9C0E01203B1300503D0E0F9D0E0B2
:10066000B509CC3005177F30B9100C1203B17F5893
:100670003004077F788003B908031203B130020504
:100680007F2D0203B17F202008F87F2B2006F32264
:10069000920280CF286E756C6C2900D20112036E15
:1006A0003001F8C201780930D50108F602041D2D89
:1006B0005043495812036E2403B405004001E490EE
:1006C00006AF931203A2743A1203A2D2037509046F
:1006D000020502BB010689828A83E0225002E722DA
:1006E000BBFE02E32289828A83E49322BC000BBE14
:1006F0000029EF8DF084FFADF022E4CCF875F0080E
:10070000EF2FFFEE33FEEC33FCEE9DEC984005FC42
:10071000EE9DFE0FD5F0E9E4CEFD22EDF8F5F0EE0A
:100720008420D21CFEADF075F008EF2FFFED33FDF5
:100730004007985006D5F0F222C398FD0FD5F0EA95
:1007400022C5F0F8A3E028F0C5F0F8E58215827024
:10075000021583E038F022BB010A89828A83E0F522
:10076000F0A3E022500687F009E71922BBFE07E359
:10077000F5F009E3192289828A83E493F5F0740184
:100780009322BB010A89828A83F0E5F0A3F022500C
:1007900006F709A7F01922BBFE06F3E5F009F319E5
:1007A00022F8BB0111E58229F582E5833AF583E859
:1007B000F0E5F0A3F0225009E92582C8F608A6F07A
:1007C00022BBFE09E92582C8F2E5F008F222E0FB2F
:1007D000A3E0FAA3E0F922F8E0FBA3A3E0F925F0F7
:1007E000F0E582158270021583E0FA38F022EBF012
:1007F000A3EAF0A3E9F022BB010CE58229F582E52A
:10080000833AF583E0225006E92582F8E622BBFE12
:1008100006E92582F8E222E58229F582E5833AF5A8
:1008200083E49322BB010689828A83F0225002F777
:1008300022BBFE01F322D083D082F8E493701274BD
:100840000193700DA3A393F8740193F5828883E458
:10085000737402936860EFA3A3A380DF7B017F0D15
:100860007D017C007E809006BBEEF0A3EFF0A3EC50
:10087000F0A3EDF0A31207EE9006BBE0FCA3E0FDB1
:10088000EC9006C6F0EDA3F0120BED7F66120BDFC5
:10089000120B9F9006C6E0FF120BDF120B9F900613
:1008A000C7E0FF120BDF120B9F120BED7F67120BDD
:1008B000DF120B9FE49006C4F0A3F09006BDE0FEAB
:1008C000A3E0FFC39006C5E09F9006C4E09E4003EE
:1008D000020959120BD09006C2EFF0120BB0120BA6
:1008E000D09006C3EFF09006BEE024FFFF9006BD57
:1008F000E034FFFE9006C4E0B5060AA3E0B50705A4
:10090000120BC08003120BB09006C2E0FD9006C52A
:10091000E025E0FF9006C4E033FE9006BF1207CE4C
:100920008F828E83E48DF01207A1E92FF9EA3EFA57
:1009300012075775F000120782120757FF9006C37F
:10094000E0FDEF4DFFE5F08FF01207829006C4E462
:1009500075F0011207410208BB120C067F002290BD
:1009600006BBEEF0A3EFF0A3ECF0A3EDF0120BED5D
:100970007F66120BDF120B9F9006BBE0FF120BDFAE
:10098000120B9F9006BBA3E0FF120BDF120B9F9090
:1009900006BDE0FF120BDF120B9F9006BDA3E0FF28
:1009A000120BDF120B9F120C067F0022AD07AC0664
:1009B0007F337E2BEEC4F854F0C868FEEFC4540FAA
:1009C00048FF1206ECEF1F70011EEEC313FEEF137B
:1009D000FFD3943FEE940040027F3F43BA3090FE35
:1009E00080E044C0F0E04FF090FE82E4F0D2B32209
:1009F0009006B8EFF07B017A0679B912085E90068E
:100A0000B9E054FCF0A3E0547FF09006B8E075F034
:100A100080A4FFA3E045F0F0A3E04FF09006B9E01A
:100A2000FCA3E0FD7F0D7E8002095F9006B8EFF029
:100A30007B017A0679B912085E9006B9E054EFF0AE
:100A4000A3E0F09006B8E0C454F0FEA3E04EF0A39B
:100A5000E0F09006B9E0FCA3E0FD7F0D7E80020986
:100A60005F9006B8EFF07A0679B912085C9006B983
:100A7000E054F3F0A3E0F09006B8E025E025E0FEB6
:100A8000A3E04EF0A3E0F09006B9E0FCA3E0FD7F08
:100A90000D7E8002095F740190FE81F0E4FFFE90FC
:100AA000FE82E020E60D0FEF70010ED39410EE945D
:100AB0002740EC90FE82E054BFF0C3EF9410EE9418
:100AC000277F0040027F01227B017A067980900611
:100AD000B81207EE9006B81207CE1206D360169031
:100AE00006B8E475F0011207D71206D3F5993099CC
:100AF000FDC29980DF22EFB40A07740D120B017456
:100B00000A309811A899B8130CC2983098FDA8998A
:100B1000C298B811F63099FDC299F59922AA06AB90
:100B200007EB1BAE0270011A4E6010E4FDEDC3949A
:100B30000A50EE7F64120C0F0D80F222AF8943BA87
:100B40008053BAFE759A5075D7F475D6FF438E144C
:100B500043AF01D2AF8F892290FE80E0543FF07FF7
:100B600001120B98120B8D120B8DE044C0F090FE19
:100B700082E4F02253A23F75985053890F758BF48D
:100B8000758DFFD28E438E40D2ACD2AF22C2B27FDF
:100B900001120B98D2B27F01AE071FEE70FA2274D9
:100BA00003120A9890FE82E07F0030E1027F01226A
:100BB00090FE82E054FEF090FE817405F0020A9CE3
:100BC00090FE82E04401F090FE817405F0020A9CE0
:100BD00090FE817404F0120A9C90FE87E0FF229040
:100BE000FE86EFF090FE817402F0020A9C120A96D3
:100BF000BF0106120B58120A9622787FE4F6D8FD40
:100C000075812102000390FE817406F0020A9CAEF9
:100C1000071FEE70FA22020C064D4C58393036345C
:100C20003020496E69742E2E2E004F4B0D0A004D58
:100C30004C5839303634302072656164696E6720F3
:100C40007265676973746572732E2E2E0D0A0052D9
:100C500065675B3078253034585D3D253034580960
:100C6000000D0A004D4C5839303634302072656121
:100C700064696E6720454550524F4D2E2E2E0D0A49
:100C8000000D0A45454D5B3078253034585D200015
:100C90002530345820000D0A46524D5B30782530FF
:100CA00034585D2000434F4E54524F4C313D253057
:100CB00034580D0A005354415455533D253034588F
:030CC0000D0A001A
:00000001FF
