:100000000205D543BA8053C9CF43CA30D2CCD2CD32
:1000100012054F120517E4FFFE12041E90FE80E049
:100020004480F07BFF7A0479CC1204F27F147E00C6
:100030001203B21205F17F327E001203B27BFF7A07
:100040000479DD1204F21203611203AE1203617B24
:10005000017A0079007D407C037F007E24120268D3
:100060007BFF7A0479E21204F2E4900680F0A3F0B8
:10007000900680E0FEA3E0FFC39440EE9403500F8F
:10008000120462900680E475F0011201A880E17FFD
:10009000647E001203B27F0A7E001203B27B017AF3
:1000A0000679847D017C007F0D7E801202687B01D1
:1000B0007A0679827D017C007F007E801202689042
:1000C0000682E0FEA3E030E3CDAC0654E7FD7F00FE
:1000D0007E801203D17B017A0079007D407C037F12
:1000E000007E04120268D2CD7BFF7A0479EA120402
:1000F000F2E4900680F0A3F0900680E0FEA3E0FF1B
:10010000C39440EE9403500F120462900680E4758D
:10011000F0011201A880E1900684E0FF120492A38E
:10012000E0FF120492E4FF120492900682A3E054CE
:1001300001FF120492C2CD020096BB010689828A99
:1001400083E0225002E722BBFE02E32289828A83F7
:10015000E49322BC000BBE0029EF8DF084FFADF0CC
:1001600022E4CCF875F008EF2FFFEE33FEEC33FC01
:10017000EE9DEC984005FCEE9DFE0FD5F0E9E4CE37
:10018000FD22EDF8F5F0EE8420D21CFEADF075F006
:1001900008EF2FFFED33FD4007985006D5F0F2220F
:1001A000C398FD0FD5F0EA22C5F0F8A3E028F0C50A
:1001B000F0F8E582158270021583E038F022BB0169
:1001C0000A89828A83E0F5F0A3E022500687F009CD
:1001D000E71922BBFE07E3F5F009E3192289828AB9
:1001E00083E493F5F074019322BB010A89828A8328
:1001F000F0E5F0A3F0225006F709A7F01922BBFEA4
:1002000006F3E5F009F31922F8BB0111E58229F59F
:1002100082E5833AF583E8F0E5F0A3F0225009E99E
:100220002582C8F608A6F022BBFE09E92582C8F29D
:10023000E5F008F222E0FBA3E0FAA3E0F922F8E0FF
:10024000FBA3A3E0F925F0F0E58215827002158387
:10025000E0FA38F022EBF0A3EAF0A3E9F0227B0108
:100260007F0D7D017C007E80900686EEF0A3EFF08E
:10027000A3ECF0A3EDF0A3120255900686E0FCA3D8
:10028000E0FDEC900691F0EDA3F01205C87F661238
:1002900005BA12057A900691E0FF1205BA12057AA6
:1002A000900692E0FF1205BA12057A1205C87F6720
:1002B0001205BA12057AE490068FF0A3F090068832
:1002C000E0FEA3E0FFC3900690E09F90068FE09EC3
:1002D000400302035B1205AB90068DEFF012058B15
:1002E0001205AB90068EEFF0900689E024FFFF9098
:1002F0000688E034FFFE90068FE0B5060AA3E0B55D
:10030000070512059B800312058B90068DE0FD907A
:100310000690E025E0FF90068FE033FE90068A12FB
:1003200002358F828E83E48DF0120208E92FF9EAFC
:100330003EFA1201BE75F0001201E91201BEFF90F3
:10034000068EE0FDEF4DFFE5F08FF01201E990061B
:100350008FE475F0011201A80202BD1205E17F00D1
:10036000227FC87E001203B27FC87E001203B27FD4
:10037000C87E001203B27FC87E001203B27FC87E1F
:10038000001203B27FC87E001203B27FC87E001243
:1003900003B27FC87E001203B27FC87E001203B290
:1003A0007FC87E001203B27FC87E001203B27FC8EE
:1003B0007E00AA06AB07EB1BAE0270011A4E60105E
:1003C000E4FDEDC3940A50EE7F641205EA0D80F25D
:1003D00022900686EEF0A3EFF0A3ECF0A3EDF0126E
:1003E00005C87F661205BA12057A900686E0FF12EC
:1003F00005BA12057A900686A3E0FF1205BA120527
:100400007A900688E0FF1205BA12057A900688A352
:10041000E0FF1205BA12057A1205E17F0022AD074E
:10042000AC067F337E2BEEC4F854F0C868FEEFC4F0
:10043000540F48FF120153EF1F70011EEEC313FE4D
:10044000EF13FFD3943FEE940040027F3F43BA3056
:1004500090FE80E044C0F0E04FF090FE82E4F0D2E5
:10046000B322EF25E0FFEE33FE74002FF582740017
:100470003EF583E0FF120492900681E025E0FF90B4
:100480000680E033FE74002FF58274003EF583A3EE
:10049000E0FF8F993099FDC29922740190FE81F09E
:1004A000E4FFFE90FE82E020E60D0FEF70010ED318
:1004B0009410EE942740EC90FE82E054BFF0C3EF1E
:1004C0009410EE94277F0040027F01224D4C583952
:1004D0003036343020496E69742E2E2E004F4B0D6D
:1004E0000A004D4C585F45454D004D4C585F4652F3
:1004F0004D009006861202559006861202351201B2
:100500003A6013900686E475F00112023E12013A39
:10051000FF12049280E222AF8943BA8053BAFE757B
:100520009A5075D7F475D6FF438E1443AF01D2AFFE
:100530008F892290FE80E0543FF07F0112057312F4
:100540000568120568E044C0F090FE82E4F0225392
:10055000A23F75985053890F758BF4758DFFD28E1D
:10056000438E40D2ACD2AF22C2B27F01120573D209
:10057000B27F01AE071FEE70FA22740312049C9042
:10058000FE82E07F0030E1027F012290FE82E05493
:10059000FEF090FE817405F00204A090FE82E0441B
:1005A00001F090FE817405F00204A090FE817404B5
:1005B000F01204A090FE87E0FF2290FE86EFF090FC
:1005C000FE817402F00204A012049ABF0106120513
:1005D0003312049A22787FE4F6D8FD758107020071
:1005E0000390FE817406F00204A0AE071FEE70FABD
:0405F000220205E1FD
:00000001FF
